:020000020000FC
:100000000FEF10E028E130E007B91AB90BB910BBC7
:100010000BB9432F403029F0479A0E9438004A9587
:10002000C9F74798432F483121F00E943800439583
:10003000D1F7EFCF4C9B06C00E943200303071F0F8
:100040003A9508957E9B08950E943500383111F04D
:10005000339508950E94440030E0FBCF0E94570082
:1000600038E1EFCF4C9B0895FDCF7E9B0895FDCFE7
:1000700052E065E47AEA7A950E941A00E1F76A95FF
:10008000D1F75A95C1F7089584E194E1A4E6B9E067
:10009000BA950000E9F7AA950000C9F7C8B1D0E405
:1000A000CD27C8B99A9591F78A9579F7089584E193
:1000B00094E1A4E6B6E0BA950000E9F7AA9500003D
:1000C000C9F7C8B1D0E4CD27C8B99A9591F78A95F8
:0400D00079F708951F
:00000001FF
